{
  "_format": "hh-sol-artifact-1",
  "contractName": "Main",
  "sourceName": "contracts/main.sol",
  "abi": [
    {
      "anonymous": false,
      "inputs": [
        {
          "indexed": false,
          "internalType": "uint256",
          "name": "requestId",
          "type": "uint256"
        },
        {
          "indexed": false,
          "internalType": "address",
          "name": "payeeAddress",
          "type": "address"
        },
        {
          "indexed": false,
          "internalType": "address",
          "name": "payerAddress",
          "type": "address"
        },
        {
          "indexed": false,
          "internalType": "uint256",
          "name": "amount",
          "type": "uint256"
        },
        {
          "indexed": false,
          "internalType": "string",
          "name": "description",
          "type": "string"
        },
        {
          "indexed": false,
          "internalType": "uint256",
          "name": "timestamp",
          "type": "uint256"
        }
      ],
      "name": "NewRequest",
      "type": "event"
    },
    {
      "anonymous": false,
      "inputs": [
        {
          "indexed": false,
          "internalType": "uint256",
          "name": "requestId",
          "type": "uint256"
        },
        {
          "indexed": false,
          "internalType": "address",
          "name": "payeeAddress",
          "type": "address"
        },
        {
          "indexed": false,
          "internalType": "address",
          "name": "payerAddress",
          "type": "address"
        },
        {
          "indexed": false,
          "internalType": "uint256",
          "name": "amount",
          "type": "uint256"
        },
        {
          "indexed": false,
          "internalType": "string",
          "name": "description",
          "type": "string"
        },
        {
          "indexed": false,
          "internalType": "uint256",
          "name": "timestamp",
          "type": "uint256"
        }
      ],
      "name": "NewTransaction",
      "type": "event"
    },
    {
      "anonymous": false,
      "inputs": [
        {
          "indexed": true,
          "internalType": "address",
          "name": "previousOwner",
          "type": "address"
        },
        {
          "indexed": true,
          "internalType": "address",
          "name": "newOwner",
          "type": "address"
        }
      ],
      "name": "OwnershipTransferred",
      "type": "event"
    },
    {
      "inputs": [
        {
          "internalType": "address",
          "name": "_payerAddress",
          "type": "address"
        },
        {
          "internalType": "uint256",
          "name": "_amount",
          "type": "uint256"
        },
        {
          "internalType": "string",
          "name": "_description",
          "type": "string"
        }
      ],
      "name": "createRequest",
      "outputs": [],
      "stateMutability": "nonpayable",
      "type": "function"
    },
    {
      "inputs": [
        {
          "internalType": "address",
          "name": "_payeeAddress",
          "type": "address"
        }
      ],
      "name": "getAllPayeeRequests",
      "outputs": [
        {
          "internalType": "uint256[]",
          "name": "",
          "type": "uint256[]"
        }
      ],
      "stateMutability": "view",
      "type": "function"
    },
    {
      "inputs": [
        {
          "internalType": "address",
          "name": "_payerAddress",
          "type": "address"
        }
      ],
      "name": "getAllPayerRequests",
      "outputs": [
        {
          "internalType": "uint256[]",
          "name": "",
          "type": "uint256[]"
        }
      ],
      "stateMutability": "view",
      "type": "function"
    },
    {
      "inputs": [],
      "name": "isOwner",
      "outputs": [
        {
          "internalType": "bool",
          "name": "",
          "type": "bool"
        }
      ],
      "stateMutability": "view",
      "type": "function"
    },
    {
      "inputs": [
        {
          "internalType": "uint256",
          "name": "_requestId",
          "type": "uint256"
        }
      ],
      "name": "markAsApproved",
      "outputs": [],
      "stateMutability": "nonpayable",
      "type": "function"
    },
    {
      "inputs": [
        {
          "internalType": "uint256",
          "name": "_requestId",
          "type": "uint256"
        }
      ],
      "name": "markAsRejected",
      "outputs": [],
      "stateMutability": "nonpayable",
      "type": "function"
    },
    {
      "inputs": [],
      "name": "owner",
      "outputs": [
        {
          "internalType": "address",
          "name": "",
          "type": "address"
        }
      ],
      "stateMutability": "view",
      "type": "function"
    },
    {
      "inputs": [],
      "name": "renounceOwnership",
      "outputs": [],
      "stateMutability": "nonpayable",
      "type": "function"
    },
    {
      "inputs": [
        {
          "internalType": "uint256",
          "name": "",
          "type": "uint256"
        }
      ],
      "name": "requestToPayee",
      "outputs": [
        {
          "internalType": "address",
          "name": "",
          "type": "address"
        }
      ],
      "stateMutability": "view",
      "type": "function"
    },
    {
      "inputs": [
        {
          "internalType": "uint256",
          "name": "",
          "type": "uint256"
        }
      ],
      "name": "requestToPayer",
      "outputs": [
        {
          "internalType": "address",
          "name": "",
          "type": "address"
        }
      ],
      "stateMutability": "view",
      "type": "function"
    },
    {
      "inputs": [
        {
          "internalType": "uint256",
          "name": "",
          "type": "uint256"
        }
      ],
      "name": "requests",
      "outputs": [
        {
          "internalType": "address",
          "name": "payeeAddress",
          "type": "address"
        },
        {
          "internalType": "address",
          "name": "payerAddress",
          "type": "address"
        },
        {
          "internalType": "uint256",
          "name": "amount",
          "type": "uint256"
        },
        {
          "internalType": "string",
          "name": "description",
          "type": "string"
        },
        {
          "internalType": "uint8",
          "name": "approved",
          "type": "uint8"
        },
        {
          "internalType": "bool",
          "name": "completed",
          "type": "bool"
        },
        {
          "internalType": "uint256",
          "name": "timestamp",
          "type": "uint256"
        }
      ],
      "stateMutability": "view",
      "type": "function"
    },
    {
      "inputs": [
        {
          "internalType": "address",
          "name": "newOwner",
          "type": "address"
        }
      ],
      "name": "transferOwnership",
      "outputs": [],
      "stateMutability": "nonpayable",
      "type": "function"
    }
  ],
  "bytecode": "0x608060405234801561001057600080fd5b50336000806101000a81548173ffffffffffffffffffffffffffffffffffffffff021916908373ffffffffffffffffffffffffffffffffffffffff16021790555060008054906101000a900473ffffffffffffffffffffffffffffffffffffffff1673ffffffffffffffffffffffffffffffffffffffff16600073ffffffffffffffffffffffffffffffffffffffff167f8be0079c531659141344cd1fd0a4f28419497f9722a3daafe3b4186f6b6457e060405160405180910390a36114cc806100db6000396000f3fe608060405234801561001057600080fd5b50600436106100b45760003560e01c8063933f072411610071578063933f07241461016d578063ba9a7a9e1461019d578063da024b09146101b9578063db416093146101e9578063ec94f12b14610219578063f2fde38b14610249576100b4565b80630a1c146e146100b95780633d21d907146100d5578063715018a6146100f157806381d12c58146100fb5780638da5cb5b146101315780638f32d59b1461014f575b600080fd5b6100d360048036038101906100ce9190610fb7565b610265565b005b6100ef60048036038101906100ea9190610fb7565b610453565b005b6100f961053a565b005b61011560048036038101906101109190610fb7565b610609565b6040516101289796959493929190611122565b60405180910390f35b61013961073d565b6040516101469190611107565b60405180910390f35b610157610766565b60405161016491906111ba565b60405180910390f35b61018760048036038101906101829190610f22565b6107bd565b6040516101949190611198565b60405180910390f35b6101b760048036038101906101b29190610f4b565b610854565b005b6101d360048036038101906101ce9190610fb7565b610bfa565b6040516101e09190611107565b60405180910390f35b61020360048036038101906101fe9190610f22565b610c2d565b6040516102109190611198565b60405180910390f35b610233600480360381019061022e9190610fb7565b610cc4565b6040516102409190611107565b60405180910390f35b610263600480360381019061025e9190610f22565b610cf7565b005b6000600182815481106102a1577f4e487b7100000000000000000000000000000000000000000000000000000000600052603260045260246000fd5b906000526020600020906006020190508060010160009054906101000a900473ffffffffffffffffffffffffffffffffffffffff1673ffffffffffffffffffffffffffffffffffffffff163373ffffffffffffffffffffffffffffffffffffffff161461030d57600080fd5b60008160000160009054906101000a900473ffffffffffffffffffffffffffffffffffffffff1690506000826002015490506000836003018054610350906113c7565b80601f016020809104026020016040519081016040528092919081815260200182805461037c906113c7565b80156103c95780601f1061039e576101008083540402835291602001916103c9565b820191906000526020600020905b8154815290600101906020018083116103ac57829003601f168201915b505050505090507f6770827c7863828e87b5d4d0333c60d1abdc5ef1fc27e75a1473eb5b5a22ef6e8584338585426040516104099695949392919061123f565b60405180910390a160018460040160006101000a81548160ff021916908360ff16021790555060018460040160016101000a81548160ff0219169083151502179055505050505050565b60006001828154811061048f577f4e487b7100000000000000000000000000000000000000000000000000000000600052603260045260246000fd5b906000526020600020906006020190508060010160009054906101000a900473ffffffffffffffffffffffffffffffffffffffff1673ffffffffffffffffffffffffffffffffffffffff163373ffffffffffffffffffffffffffffffffffffffff16146104fb57600080fd5b60028160040160006101000a81548160ff021916908360ff16021790555060018160040160016101000a81548160ff0219169083151502179055505050565b610542610766565b61054b57600080fd5b600073ffffffffffffffffffffffffffffffffffffffff1660008054906101000a900473ffffffffffffffffffffffffffffffffffffffff1673ffffffffffffffffffffffffffffffffffffffff167f8be0079c531659141344cd1fd0a4f28419497f9722a3daafe3b4186f6b6457e060405160405180910390a360008060006101000a81548173ffffffffffffffffffffffffffffffffffffffff021916908373ffffffffffffffffffffffffffffffffffffffff160217905550565b6001818154811061061957600080fd5b90600052602060002090600602016000915090508060000160009054906101000a900473ffffffffffffffffffffffffffffffffffffffff16908060010160009054906101000a900473ffffffffffffffffffffffffffffffffffffffff169080600201549080600301805461068e906113c7565b80601f01602080910402602001604051908101604052809291908181526020018280546106ba906113c7565b80156107075780601f106106dc57610100808354040283529160200191610707565b820191906000526020600020905b8154815290600101906020018083116106ea57829003601f168201915b5050505050908060040160009054906101000a900460ff16908060040160019054906101000a900460ff16908060050154905087565b60008060009054906101000a900473ffffffffffffffffffffffffffffffffffffffff16905090565b60008060009054906101000a900473ffffffffffffffffffffffffffffffffffffffff1673ffffffffffffffffffffffffffffffffffffffff163373ffffffffffffffffffffffffffffffffffffffff1614905090565b6060600460008373ffffffffffffffffffffffffffffffffffffffff1673ffffffffffffffffffffffffffffffffffffffff16815260200190815260200160002080548060200260200160405190810160405280929190818152602001828054801561084857602002820191906000526020600020905b815481526020019060010190808311610834575b50505050509050919050565b60016040518060e001604052803373ffffffffffffffffffffffffffffffffffffffff1681526020018673ffffffffffffffffffffffffffffffffffffffff16815260200185815260200184848080601f016020809104026020016040519081016040528093929190818152602001838380828437600081840152601f19601f820116905080830192505050505050508152602001600060ff16815260200160001515815260200142815250908060018154018082558091505060019003906000526020600020906006020160009091909190915060008201518160000160006101000a81548173ffffffffffffffffffffffffffffffffffffffff021916908373ffffffffffffffffffffffffffffffffffffffff16021790555060208201518160010160006101000a81548173ffffffffffffffffffffffffffffffffffffffff021916908373ffffffffffffffffffffffffffffffffffffffff1602179055506040820151816002015560608201518160030190805190602001906109dd929190610e0b565b5060808201518160040160006101000a81548160ff021916908360ff16021790555060a08201518160040160016101000a81548160ff02191690831515021790555060c082015181600501555050600060018080549050610a3e91906112fc565b9050336002600083815260200190815260200160002060006101000a81548173ffffffffffffffffffffffffffffffffffffffff021916908373ffffffffffffffffffffffffffffffffffffffff160217905550336003600083815260200190815260200160002060006101000a81548173ffffffffffffffffffffffffffffffffffffffff021916908373ffffffffffffffffffffffffffffffffffffffff160217905550600460003373ffffffffffffffffffffffffffffffffffffffff1673ffffffffffffffffffffffffffffffffffffffff168152602001908152602001600020819080600181540180825580915050600190039060005260206000200160009091909190915055600560008673ffffffffffffffffffffffffffffffffffffffff1673ffffffffffffffffffffffffffffffffffffffff1681526020019081526020016000208190806001815401808255809150506001900390600052602060002001600090919091909150557f52057a9dafa0a4a3e6d90ef4a067bfd530c635f0aa7ae4a6a82a52b370f1165981338787878742604051610beb97969594939291906111d5565b60405180910390a15050505050565b60036020528060005260406000206000915054906101000a900473ffffffffffffffffffffffffffffffffffffffff1681565b6060600560008373ffffffffffffffffffffffffffffffffffffffff1673ffffffffffffffffffffffffffffffffffffffff168152602001908152602001600020805480602002602001604051908101604052809291908181526020018280548015610cb857602002820191906000526020600020905b815481526020019060010190808311610ca4575b50505050509050919050565b60026020528060005260406000206000915054906101000a900473ffffffffffffffffffffffffffffffffffffffff1681565b610cff610766565b610d0857600080fd5b610d1181610d14565b50565b600073ffffffffffffffffffffffffffffffffffffffff168173ffffffffffffffffffffffffffffffffffffffff161415610d4e57600080fd5b8073ffffffffffffffffffffffffffffffffffffffff1660008054906101000a900473ffffffffffffffffffffffffffffffffffffffff1673ffffffffffffffffffffffffffffffffffffffff167f8be0079c531659141344cd1fd0a4f28419497f9722a3daafe3b4186f6b6457e060405160405180910390a3806000806101000a81548173ffffffffffffffffffffffffffffffffffffffff021916908373ffffffffffffffffffffffffffffffffffffffff16021790555050565b828054610e17906113c7565b90600052602060002090601f016020900481019282610e395760008555610e80565b82601f10610e5257805160ff1916838001178555610e80565b82800160010185558215610e80579182015b82811115610e7f578251825591602001919060010190610e64565b5b509050610e8d9190610e91565b5090565b5b80821115610eaa576000816000905550600101610e92565b5090565b600081359050610ebd81611468565b92915050565b60008083601f840112610ed557600080fd5b8235905067ffffffffffffffff811115610eee57600080fd5b602083019150836001820283011115610f0657600080fd5b9250929050565b600081359050610f1c8161147f565b92915050565b600060208284031215610f3457600080fd5b6000610f4284828501610eae565b91505092915050565b60008060008060608587031215610f6157600080fd5b6000610f6f87828801610eae565b9450506020610f8087828801610f0d565b935050604085013567ffffffffffffffff811115610f9d57600080fd5b610fa987828801610ec3565b925092505092959194509250565b600060208284031215610fc957600080fd5b6000610fd784828501610f0d565b91505092915050565b6000610fec83836110da565b60208301905092915050565b61100181611330565b82525050565b6000611012826112b7565b61101c81856112da565b9350611027836112a7565b8060005b8381101561105857815161103f8882610fe0565b975061104a836112cd565b92505060018101905061102b565b5085935050505092915050565b61106e81611342565b82525050565b600061108083856112eb565b935061108d838584611385565b61109683611457565b840190509392505050565b60006110ac826112c2565b6110b681856112eb565b93506110c6818560208601611394565b6110cf81611457565b840191505092915050565b6110e38161136e565b82525050565b6110f28161136e565b82525050565b61110181611378565b82525050565b600060208201905061111c6000830184610ff8565b92915050565b600060e082019050611137600083018a610ff8565b6111446020830189610ff8565b61115160408301886110e9565b818103606083015261116381876110a1565b905061117260808301866110f8565b61117f60a0830185611065565b61118c60c08301846110e9565b98975050505050505050565b600060208201905081810360008301526111b28184611007565b905092915050565b60006020820190506111cf6000830184611065565b92915050565b600060c0820190506111ea600083018a6110e9565b6111f76020830189610ff8565b6112046040830188610ff8565b61121160608301876110e9565b8181036080830152611224818587611074565b905061123360a08301846110e9565b98975050505050505050565b600060c08201905061125460008301896110e9565b6112616020830188610ff8565b61126e6040830187610ff8565b61127b60608301866110e9565b818103608083015261128d81856110a1565b905061129c60a08301846110e9565b979650505050505050565b6000819050602082019050919050565b600081519050919050565b600081519050919050565b6000602082019050919050565b600082825260208201905092915050565b600082825260208201905092915050565b60006113078261136e565b91506113128361136e565b925082821015611325576113246113f9565b5b828203905092915050565b600061133b8261134e565b9050919050565b60008115159050919050565b600073ffffffffffffffffffffffffffffffffffffffff82169050919050565b6000819050919050565b600060ff82169050919050565b82818337600083830152505050565b60005b838110156113b2578082015181840152602081019050611397565b838111156113c1576000848401525b50505050565b600060028204905060018216806113df57607f821691505b602082108114156113f3576113f2611428565b5b50919050565b7f4e487b7100000000000000000000000000000000000000000000000000000000600052601160045260246000fd5b7f4e487b7100000000000000000000000000000000000000000000000000000000600052602260045260246000fd5b6000601f19601f8301169050919050565b61147181611330565b811461147c57600080fd5b50565b6114888161136e565b811461149357600080fd5b5056fea2646970667358221220e282aad6e3c2f5d78ceeed1499e5cca605b675ed81f2e088a12a249e536b47e664736f6c63430008040033",
  "linkReferences": {},
  "deployedLinkReferences": {}
}