{
  "_format": "hh-sol-artifact-1",
  "contractName": "Main",
  "sourceName": "contracts/main.sol",
  "abi": [
    {
      "anonymous": false,
      "inputs": [
        {
          "indexed": false,
          "internalType": "uint256",
          "name": "requestId",
          "type": "uint256"
        },
        {
          "indexed": false,
          "internalType": "address",
          "name": "payeeAddress",
          "type": "address"
        },
        {
          "indexed": false,
          "internalType": "address",
          "name": "payerAddress",
          "type": "address"
        },
        {
          "indexed": false,
          "internalType": "uint256",
          "name": "amount",
          "type": "uint256"
        },
        {
          "indexed": false,
          "internalType": "string",
          "name": "description",
          "type": "string"
        },
        {
          "indexed": false,
          "internalType": "uint256",
          "name": "timestamp",
          "type": "uint256"
        }
      ],
      "name": "NewRequest",
      "type": "event"
    },
    {
      "anonymous": false,
      "inputs": [
        {
          "indexed": false,
          "internalType": "uint256",
          "name": "requestId",
          "type": "uint256"
        },
        {
          "indexed": false,
          "internalType": "address",
          "name": "payeeAddress",
          "type": "address"
        },
        {
          "indexed": false,
          "internalType": "address",
          "name": "payerAddress",
          "type": "address"
        },
        {
          "indexed": false,
          "internalType": "uint256",
          "name": "amount",
          "type": "uint256"
        },
        {
          "indexed": false,
          "internalType": "string",
          "name": "description",
          "type": "string"
        },
        {
          "indexed": false,
          "internalType": "uint256",
          "name": "timestamp",
          "type": "uint256"
        }
      ],
      "name": "NewTransaction",
      "type": "event"
    },
    {
      "anonymous": false,
      "inputs": [
        {
          "indexed": true,
          "internalType": "address",
          "name": "previousOwner",
          "type": "address"
        },
        {
          "indexed": true,
          "internalType": "address",
          "name": "newOwner",
          "type": "address"
        }
      ],
      "name": "OwnershipTransferred",
      "type": "event"
    },
    {
      "inputs": [
        {
          "internalType": "address",
          "name": "_payerAddress",
          "type": "address"
        },
        {
          "internalType": "uint256",
          "name": "_amount",
          "type": "uint256"
        },
        {
          "internalType": "string",
          "name": "_description",
          "type": "string"
        }
      ],
      "name": "createRequest",
      "outputs": [],
      "stateMutability": "nonpayable",
      "type": "function"
    },
    {
      "inputs": [
        {
          "internalType": "address",
          "name": "_payeeAddress",
          "type": "address"
        }
      ],
      "name": "getAllPayeeRequests",
      "outputs": [
        {
          "internalType": "uint256[]",
          "name": "",
          "type": "uint256[]"
        }
      ],
      "stateMutability": "view",
      "type": "function"
    },
    {
      "inputs": [
        {
          "internalType": "address",
          "name": "_payerAddress",
          "type": "address"
        }
      ],
      "name": "getAllPayerRequests",
      "outputs": [
        {
          "internalType": "uint256[]",
          "name": "",
          "type": "uint256[]"
        }
      ],
      "stateMutability": "view",
      "type": "function"
    },
    {
      "inputs": [],
      "name": "isOwner",
      "outputs": [
        {
          "internalType": "bool",
          "name": "",
          "type": "bool"
        }
      ],
      "stateMutability": "view",
      "type": "function"
    },
    {
      "inputs": [
        {
          "internalType": "uint256",
          "name": "_requestId",
          "type": "uint256"
        }
      ],
      "name": "markAsApproved",
      "outputs": [],
      "stateMutability": "nonpayable",
      "type": "function"
    },
    {
      "inputs": [],
      "name": "owner",
      "outputs": [
        {
          "internalType": "address",
          "name": "",
          "type": "address"
        }
      ],
      "stateMutability": "view",
      "type": "function"
    },
    {
      "inputs": [
        {
          "internalType": "uint256",
          "name": "_requestId",
          "type": "uint256"
        }
      ],
      "name": "rejectRequest",
      "outputs": [],
      "stateMutability": "nonpayable",
      "type": "function"
    },
    {
      "inputs": [],
      "name": "renounceOwnership",
      "outputs": [],
      "stateMutability": "nonpayable",
      "type": "function"
    },
    {
      "inputs": [
        {
          "internalType": "uint256",
          "name": "",
          "type": "uint256"
        }
      ],
      "name": "requestToPayee",
      "outputs": [
        {
          "internalType": "address",
          "name": "",
          "type": "address"
        }
      ],
      "stateMutability": "view",
      "type": "function"
    },
    {
      "inputs": [
        {
          "internalType": "uint256",
          "name": "",
          "type": "uint256"
        }
      ],
      "name": "requestToPayer",
      "outputs": [
        {
          "internalType": "address",
          "name": "",
          "type": "address"
        }
      ],
      "stateMutability": "view",
      "type": "function"
    },
    {
      "inputs": [
        {
          "internalType": "uint256",
          "name": "",
          "type": "uint256"
        }
      ],
      "name": "requests",
      "outputs": [
        {
          "internalType": "address",
          "name": "payeeAddress",
          "type": "address"
        },
        {
          "internalType": "address",
          "name": "payerAddress",
          "type": "address"
        },
        {
          "internalType": "uint256",
          "name": "amount",
          "type": "uint256"
        },
        {
          "internalType": "string",
          "name": "description",
          "type": "string"
        },
        {
          "internalType": "uint8",
          "name": "approved",
          "type": "uint8"
        },
        {
          "internalType": "bool",
          "name": "completed",
          "type": "bool"
        },
        {
          "internalType": "uint256",
          "name": "timestamp",
          "type": "uint256"
        }
      ],
      "stateMutability": "view",
      "type": "function"
    },
    {
      "inputs": [
        {
          "internalType": "address",
          "name": "newOwner",
          "type": "address"
        }
      ],
      "name": "transferOwnership",
      "outputs": [],
      "stateMutability": "nonpayable",
      "type": "function"
    }
  ],
  "bytecode": "0x608060405234801561001057600080fd5b50336000806101000a81548173ffffffffffffffffffffffffffffffffffffffff021916908373ffffffffffffffffffffffffffffffffffffffff16021790555060008054906101000a900473ffffffffffffffffffffffffffffffffffffffff1673ffffffffffffffffffffffffffffffffffffffff16600073ffffffffffffffffffffffffffffffffffffffff167f8be0079c531659141344cd1fd0a4f28419497f9722a3daafe3b4186f6b6457e060405160405180910390a3611423806100db6000396000f3fe608060405234801561001057600080fd5b50600436106100b45760003560e01c8063933f072411610071578063933f07241461016d578063ba9a7a9e1461019d578063da024b09146101b9578063db416093146101e9578063ec94f12b14610219578063f2fde38b14610249576100b4565b80630a1c146e146100b95780632d7788db146100d5578063715018a6146100f157806381d12c58146100fb5780638da5cb5b146101315780638f32d59b1461014f575b600080fd5b6100d360048036038101906100ce9190610f0e565b610265565b005b6100ef60048036038101906100ea9190610f0e565b610406565b005b6100f9610491565b005b61011560048036038101906101109190610f0e565b610560565b6040516101289796959493929190611079565b60405180910390f35b610139610694565b604051610146919061105e565b60405180910390f35b6101576106bd565b6040516101649190611111565b60405180910390f35b61018760048036038101906101829190610e79565b610714565b60405161019491906110ef565b60405180910390f35b6101b760048036038101906101b29190610ea2565b6107ab565b005b6101d360048036038101906101ce9190610f0e565b610b51565b6040516101e0919061105e565b60405180910390f35b61020360048036038101906101fe9190610e79565b610b84565b60405161021091906110ef565b60405180910390f35b610233600480360381019061022e9190610f0e565b610c1b565b604051610240919061105e565b60405180910390f35b610263600480360381019061025e9190610e79565b610c4e565b005b60006002600083815260200190815260200160002060009054906101000a900473ffffffffffffffffffffffffffffffffffffffff1690506000600183815481106102d9577f4e487b7100000000000000000000000000000000000000000000000000000000600052603260045260246000fd5b9060005260206000209060060201905060008160020154905060008260030180546103039061131e565b80601f016020809104026020016040519081016040528092919081815260200182805461032f9061131e565b801561037c5780601f106103515761010080835404028352916020019161037c565b820191906000526020600020905b81548152906001019060200180831161035f57829003601f168201915b505050505090507f6770827c7863828e87b5d4d0333c60d1abdc5ef1fc27e75a1473eb5b5a22ef6e8585338585426040516103bc96959493929190611196565b60405180910390a160018360040160006101000a81548160ff021916908360ff16021790555060018360040160016101000a81548160ff0219169083151502179055505050505050565b600060018281548110610442577f4e487b7100000000000000000000000000000000000000000000000000000000600052603260045260246000fd5b9060005260206000209060060201905060028160040160006101000a81548160ff021916908360ff16021790555060018160040160016101000a81548160ff0219169083151502179055505050565b6104996106bd565b6104a257600080fd5b600073ffffffffffffffffffffffffffffffffffffffff1660008054906101000a900473ffffffffffffffffffffffffffffffffffffffff1673ffffffffffffffffffffffffffffffffffffffff167f8be0079c531659141344cd1fd0a4f28419497f9722a3daafe3b4186f6b6457e060405160405180910390a360008060006101000a81548173ffffffffffffffffffffffffffffffffffffffff021916908373ffffffffffffffffffffffffffffffffffffffff160217905550565b6001818154811061057057600080fd5b90600052602060002090600602016000915090508060000160009054906101000a900473ffffffffffffffffffffffffffffffffffffffff16908060010160009054906101000a900473ffffffffffffffffffffffffffffffffffffffff16908060020154908060030180546105e59061131e565b80601f01602080910402602001604051908101604052809291908181526020018280546106119061131e565b801561065e5780601f106106335761010080835404028352916020019161065e565b820191906000526020600020905b81548152906001019060200180831161064157829003601f168201915b5050505050908060040160009054906101000a900460ff16908060040160019054906101000a900460ff16908060050154905087565b60008060009054906101000a900473ffffffffffffffffffffffffffffffffffffffff16905090565b60008060009054906101000a900473ffffffffffffffffffffffffffffffffffffffff1673ffffffffffffffffffffffffffffffffffffffff163373ffffffffffffffffffffffffffffffffffffffff1614905090565b6060600460008373ffffffffffffffffffffffffffffffffffffffff1673ffffffffffffffffffffffffffffffffffffffff16815260200190815260200160002080548060200260200160405190810160405280929190818152602001828054801561079f57602002820191906000526020600020905b81548152602001906001019080831161078b575b50505050509050919050565b60016040518060e001604052803373ffffffffffffffffffffffffffffffffffffffff1681526020018673ffffffffffffffffffffffffffffffffffffffff16815260200185815260200184848080601f016020809104026020016040519081016040528093929190818152602001838380828437600081840152601f19601f820116905080830192505050505050508152602001600060ff16815260200160001515815260200142815250908060018154018082558091505060019003906000526020600020906006020160009091909190915060008201518160000160006101000a81548173ffffffffffffffffffffffffffffffffffffffff021916908373ffffffffffffffffffffffffffffffffffffffff16021790555060208201518160010160006101000a81548173ffffffffffffffffffffffffffffffffffffffff021916908373ffffffffffffffffffffffffffffffffffffffff160217905550604082015181600201556060820151816003019080519060200190610934929190610d62565b5060808201518160040160006101000a81548160ff021916908360ff16021790555060a08201518160040160016101000a81548160ff02191690831515021790555060c0820151816005015550506000600180805490506109959190611253565b9050336002600083815260200190815260200160002060006101000a81548173ffffffffffffffffffffffffffffffffffffffff021916908373ffffffffffffffffffffffffffffffffffffffff160217905550336003600083815260200190815260200160002060006101000a81548173ffffffffffffffffffffffffffffffffffffffff021916908373ffffffffffffffffffffffffffffffffffffffff160217905550600460003373ffffffffffffffffffffffffffffffffffffffff1673ffffffffffffffffffffffffffffffffffffffff168152602001908152602001600020819080600181540180825580915050600190039060005260206000200160009091909190915055600560008673ffffffffffffffffffffffffffffffffffffffff1673ffffffffffffffffffffffffffffffffffffffff1681526020019081526020016000208190806001815401808255809150506001900390600052602060002001600090919091909150557f52057a9dafa0a4a3e6d90ef4a067bfd530c635f0aa7ae4a6a82a52b370f1165981338787878742604051610b42979695949392919061112c565b60405180910390a15050505050565b60036020528060005260406000206000915054906101000a900473ffffffffffffffffffffffffffffffffffffffff1681565b6060600560008373ffffffffffffffffffffffffffffffffffffffff1673ffffffffffffffffffffffffffffffffffffffff168152602001908152602001600020805480602002602001604051908101604052809291908181526020018280548015610c0f57602002820191906000526020600020905b815481526020019060010190808311610bfb575b50505050509050919050565b60026020528060005260406000206000915054906101000a900473ffffffffffffffffffffffffffffffffffffffff1681565b610c566106bd565b610c5f57600080fd5b610c6881610c6b565b50565b600073ffffffffffffffffffffffffffffffffffffffff168173ffffffffffffffffffffffffffffffffffffffff161415610ca557600080fd5b8073ffffffffffffffffffffffffffffffffffffffff1660008054906101000a900473ffffffffffffffffffffffffffffffffffffffff1673ffffffffffffffffffffffffffffffffffffffff167f8be0079c531659141344cd1fd0a4f28419497f9722a3daafe3b4186f6b6457e060405160405180910390a3806000806101000a81548173ffffffffffffffffffffffffffffffffffffffff021916908373ffffffffffffffffffffffffffffffffffffffff16021790555050565b828054610d6e9061131e565b90600052602060002090601f016020900481019282610d905760008555610dd7565b82601f10610da957805160ff1916838001178555610dd7565b82800160010185558215610dd7579182015b82811115610dd6578251825591602001919060010190610dbb565b5b509050610de49190610de8565b5090565b5b80821115610e01576000816000905550600101610de9565b5090565b600081359050610e14816113bf565b92915050565b60008083601f840112610e2c57600080fd5b8235905067ffffffffffffffff811115610e4557600080fd5b602083019150836001820283011115610e5d57600080fd5b9250929050565b600081359050610e73816113d6565b92915050565b600060208284031215610e8b57600080fd5b6000610e9984828501610e05565b91505092915050565b60008060008060608587031215610eb857600080fd5b6000610ec687828801610e05565b9450506020610ed787828801610e64565b935050604085013567ffffffffffffffff811115610ef457600080fd5b610f0087828801610e1a565b925092505092959194509250565b600060208284031215610f2057600080fd5b6000610f2e84828501610e64565b91505092915050565b6000610f438383611031565b60208301905092915050565b610f5881611287565b82525050565b6000610f698261120e565b610f738185611231565b9350610f7e836111fe565b8060005b83811015610faf578151610f968882610f37565b9750610fa183611224565b925050600181019050610f82565b5085935050505092915050565b610fc581611299565b82525050565b6000610fd78385611242565b9350610fe48385846112dc565b610fed836113ae565b840190509392505050565b600061100382611219565b61100d8185611242565b935061101d8185602086016112eb565b611026816113ae565b840191505092915050565b61103a816112c5565b82525050565b611049816112c5565b82525050565b611058816112cf565b82525050565b60006020820190506110736000830184610f4f565b92915050565b600060e08201905061108e600083018a610f4f565b61109b6020830189610f4f565b6110a86040830188611040565b81810360608301526110ba8187610ff8565b90506110c9608083018661104f565b6110d660a0830185610fbc565b6110e360c0830184611040565b98975050505050505050565b600060208201905081810360008301526111098184610f5e565b905092915050565b60006020820190506111266000830184610fbc565b92915050565b600060c082019050611141600083018a611040565b61114e6020830189610f4f565b61115b6040830188610f4f565b6111686060830187611040565b818103608083015261117b818587610fcb565b905061118a60a0830184611040565b98975050505050505050565b600060c0820190506111ab6000830189611040565b6111b86020830188610f4f565b6111c56040830187610f4f565b6111d26060830186611040565b81810360808301526111e48185610ff8565b90506111f360a0830184611040565b979650505050505050565b6000819050602082019050919050565b600081519050919050565b600081519050919050565b6000602082019050919050565b600082825260208201905092915050565b600082825260208201905092915050565b600061125e826112c5565b9150611269836112c5565b92508282101561127c5761127b611350565b5b828203905092915050565b6000611292826112a5565b9050919050565b60008115159050919050565b600073ffffffffffffffffffffffffffffffffffffffff82169050919050565b6000819050919050565b600060ff82169050919050565b82818337600083830152505050565b60005b838110156113095780820151818401526020810190506112ee565b83811115611318576000848401525b50505050565b6000600282049050600182168061133657607f821691505b6020821081141561134a5761134961137f565b5b50919050565b7f4e487b7100000000000000000000000000000000000000000000000000000000600052601160045260246000fd5b7f4e487b7100000000000000000000000000000000000000000000000000000000600052602260045260246000fd5b6000601f19601f8301169050919050565b6113c881611287565b81146113d357600080fd5b50565b6113df816112c5565b81146113ea57600080fd5b5056fea26469706673582212203d360498a9522af4407c382da1ad37b849cfdbd7ad606abf8b71e8f4ef28db8f64736f6c63430008040033",
  "linkReferences": {},
  "deployedLinkReferences": {}
}